:020000040800F2
:10400000FFFF0120555E0108D5EC0008D7EC000841
:1040100005EE00081DEE000835EE00080000000067
:1040200000000000000000000000000071CF020846
:104030004DEE00080000000011D00208D1EC00088D
:10404000D55E0108D55E0108D55E0108D55E010880
:10405000D55E0108D55E01088DC60008ADC6000812
:10406000CDC60008EDC6000811C70008E1D700085A
:10407000D55E010805D80008D55E0108D55E0108A7
:1040800071120108D1F80008D55E0108D55E01085B
:10409000D55E0108D55E0108D55E010835C7000868
:1040A000D55E0108D55E0108D55E0108D55E010820
:1040B000D55E0108D55E0108D55E0108D5D7000898
:1040C000C9D70008D55E0108D55E0108D55E010894
:1040D000D55E0108D55E010831F90008F5F5000844
:1040E00011C80008D55E0108D55E0108D55E01083B
:1040F000D55E010809C40008D55E0108D55E010837
:10410000D55E0108D55E0108D55E0108D55E0108BF
:10411000D55E0108D55E0108D55E0108F95D01088C
:10412000B55B0008D55E0108D55E0108D55E0108C3
:10413000D55E0108D55E0108D55E0108D55E01088F
:10414000D55E0108D55E0108D55E0108999C01087D
:104150004D5B0008D55E0108F9FE0008F5FE000879
:10416000F9D70008EDD70008D55E0108D55E010833
:10417000D55E0108D55E0108D55E0108D55E01084F
:08418000D55E0108D55E0108BF
:1041C000844641EA000313F003036DD1403A41D322
:1041D00051F8043B40F8043B51F8043B40F8043BE1
:1041E00051F8043B40F8043B51F8043B40F8043BD1
:1041F00051F8043B40F8043B51F8043B40F8043BC1
:1042000051F8043B40F8043B51F8043B40F8043BB0
:1042100051F8043B40F8043B51F8043B40F8043BA0
:1042200051F8043B40F8043B51F8043B40F8043B90
:1042300051F8043B40F8043B51F8043B40F8043B80
:1042400051F8043B40F8043B51F8043B40F8043B70
:10425000403ABDD2303211D351F8043B40F8043B10
:1042600051F8043B40F8043B51F8043B40F8043B50
:1042700051F8043B40F8043B103AEDD20C3205D320
:1042800051F8043B40F8043B043AF9D2043208D018
:10429000D2071CBF11F8013B00F8013B01D30B888A
:1042A00003806046704700BF082A13D38B078DD068
:1042B00010F003038AD0C3F10403D21ADB071CBF3A
:1042C00011F8013B00F8013B80D331F8023B20F8A4
:1042D000023B7BE7043AD9D3013A11F8013B00F8DD
:1042E000013BF9D20B7803704B7843708B78837065
:1042F0006046704700000000000000000000000061
:10430000A2EB0300704700BF02780B78012A28BF98
:104310009A42F5D16DE9044540EA0104CDE902670E
:104320006FF0000C4FEA447212B380EA010414F0FB
:10433000070F6AD100F0070420F0070004F003051E
:1043400021F007014FEAC505F0E8042314F0040F3B
:10435000F1E804670CFA05F462EA040266EA04066E
:104360000AD063EA0403624667EA0407664603E08C
:10437000F0E80423F1E8046782FA4CF582EA0604C7
:10438000A4FA8CF46CBB83FA4CF583EA0705A5FA12
:104390008CF595B950E9022351E9026782FA4CF590
:1043A00082EA0604A4FA8CF483FA4CF583EA070542
:1043B000A5FA8CF52543DBD09CB92DBAB5FA85F466
:1043C00024F0070427FA04F1DDE9026723FA04F375
:1043D00003F0FF0001F0FF01FDE80445A0EB010040
:1043E000704724BAB4FA84F424F0070426FA04F1DE
:1043F000DDE9026722FA04F202F0FF0001F0FF019A
:10440000FDE80445A0EB0100704714F0030F3CD118
:1044100010F0030428D150F8082B51F8083B82FA19
:104420004CF582EA0305A5FA8CF55DB950F8042C29
:1044300051F8043C82FA4CF582EA0305A5FA8CF5A2
:10444000002DE8D02DBAB5FA85F424F0070423FA3C
:1044500004F122FA04F202F0FF0001F0FF01FDE88E
:104460000445A0EB010070474FEAC40420F00300AC
:1044700050F8082B21F0030151F8083B0CFA04F422
:1044800062EA040263EA0403C9E710F003041AD0E5
:10449000A1EB040120F00300E40750F8042B06D040
:1044A0000FD28B785FFAA2F4E41A06D12BB1CB7845
:1044B0005FFAB2F4E41A00D11BB920465DF8104B44
:1044C000704701F1040150F8042BCC0721F00301DF
:1044D00051F8043B48D824D222F07F4482FA4CF5AC
:1044E00094EA1325A5FA8CF50AD165B951F8043B75
:1044F00084EA0204B4EB036F0ED150F8042BEBE70F
:104500004FEA132355E035F07F454DD10878FDE89B
:104510000445C0F1000070474FEA126203F0FF0348
:1045200047E002EA1C4482FA4CF594EA1345A5FAE6
:104530008CF50AD165B951F8043B84EA0204B4EB66
:10454000034F0CD150F8042BEBE74FEA134330E054
:1045500015EA1C4528D10B884FEA124229E04FEAA0
:10456000124203EA1C4324E002F0FF0482FA4CF5F5
:1045700094EA1365A5FA8CF50AD165B951F8043BA4
:1045800084EA0204B4EB032F09D150F8042BEBE7C3
:104590004FEA13630DE015F0FF0F05D10B684FEAEA
:1045A000122223F07F4304E04FF00000FDE80445B1
:1045B000704712BA1BBA82FA4CF482EA0304A4FAD6
:1045C0008CF5B5FA85F402FA04F203FA04F34FEA23
:1045D0001260FDE80445A0EB136070470000000086
:1045E00000000000000000000000000000000000CB
:1045F00000000000000000000000000000000000BB
:1046000090F800F06DE9024520F007016FF0000C12
:1046100010F0070491F820F040F049804FF00004BA
:104620006FF00700D1E9002391F840F000F1080095
:1046300082FA4CF2A4FA8CF283FA4CF3A2FA8CF3CD
:104640004BBBD1E9022382FA4CF200F10800A4FA34
:104650008CF283FA4CF3A2FA8CF3E3B9D1E9042388
:1046600082FA4CF200F10800A4FA8CF283FA4CF3BF
:10467000A2FA8CF37BB9D1E9062301F1200182FA79
:104680004CF200F10800A4FA8CF283FA4CF3A2FA7F
:104690008CF3002BC6D0002A04BF04301A4612BA8D
:1046A000B2FA82F2FDE8024500EBD2007047D1E990
:1046B000002304F00305C4F100004FEAC50514F01F
:1046C000040F91F840F00CFA05F562EA05021CBFF0
:1046D00063EA050362464FF00004A9E781F0004158
:1046E00002E000BF83F0004330B54FEA41044FEAD7
:1046F000430594EA050F08BF90EA020F1FBF54EA72
:10470000000C55EA020C7FEA645C7FEA655C00F00D
:10471000E2804FEA5454D4EB5555B8BF6D420CDDDE
:104720002C4480EA020281EA030382EA000083EA61
:10473000010180EA020281EA0303362D88BF30BD01
:1047400011F0004F4FEA01314FF4801C4CEA113157
:1047500002D0404261EB410113F0004F4FEA0333B6
:104760004CEA133302D0524263EB430394EA050F41
:1047700000F0A780A4F10104D5F1200E0DDB02FAB0
:104780000EFC22FA05F2801841F1000103FA0EF244
:10479000801843FA05F359410EE0A5F120050EF10A
:1047A000200E012A03FA0EFC28BF4CF0020C43FA3B
:1047B00005F3C01851EBE37101F0004507D54FF048
:1047C000000EDCF1000C7EEB00006EEB0101B1F598
:1047D000801F1BD3B1F5001F0CD349085FEA3000DE
:1047E0004FEA3C0C04F101044FEA445212F5800FE9
:1047F00080F09A80BCF1004F08BF5FEA500C50F186
:10480000000041EB045141EA050130BD5FEA4C0C68
:10481000404141EB0101013C28BFB1F5801FE9D2C5
:1048200091F0000F04BF01460020B1FA81F308BFE8
:104830002033A3F10B03B3F120020CDA0C3208DDB4
:1048400002F1140CC2F10C0201FA0CF021FA02F18F
:104850000CE002F11402D8BFC2F1200C01FA02F1FF
:1048600020FA0CFCDCBF41EA0C019040E41AA2BF24
:1048700001EB0451294330BD6FEA04041F3C1CDAEC
:104880000C340EDC04F11404C4F1200220FA04F00C
:1048900001FA02F340EA030021FA04F345EA0301B6
:1048A00030BDC4F10C04C4F1200220FA02F001FA78
:1048B00004F340EA0300294630BD21FA04F02946FA
:1048C00030BD94F0000F83F4801306BF81F4801193
:1048D0000134013D4EE77FEA645C18BF7FEA655C06
:1048E00029D094EA050F08BF90EA020F05D054EAD8
:1048F000000C04BF1946104630BD91EA030F1EBFDD
:104900000021002030BD5FEA545C05D140004941E0
:1049100028BF41F0004130BD14F580043CBF01F5D3
:10492000801130BD01F0004545F0FE4141F47001B9
:104930004FF0000030BD7FEA645C1ABF1946104694
:104940007FEA655C1CBF0B46024650EA013406BF95
:1049500052EA033591EA030F41F4002130BD00BF54
:1049600090F0000F04BF0021704730B54FF4806411
:1049700004F132044FF000054FF0000150E700BF92
:1049800090F0000F04BF0021704730B54FF48064F1
:1049900004F1320410F0004548BF40424FF00001DE
:1049A0003EE700BF42004FEAE2014FEA31014FEA21
:1049B00002701FBF12F07F4393F07F4F81F0605170
:1049C000704732F07F4208BF704793F07F4F04BFBB
:1049D00041F40021704730B54FF4607401F0004598
:1049E00021F000411CE700BF50EA010208BF7047F8
:1049F00030B54FF000050AE050EA010208BF7047E9
:104A000030B511F0004502D5404261EB41014FF451
:104A1000806404F132045FEA915C3FF4D8AE4FF059
:104A200003025FEADC0C18BF03325FEADC0C18BF3C
:104A3000033202EBDC02C2F1200300FA03FC20FA8D
:104A400002F001FA03FE40EA0E0021FA02F11444DA
:104A5000BDE600BF70B54FF0FF0C4CF4E06C1CEAF3
:104A600011541DBF1CEA135594EA0C0F95EA0C0F64
:104A700000F0DEF82C4481EA030621EA4C5123EAD7
:104A80004C5350EA013518BF52EA033541F4801106
:104A900043F4801338D0A0FB02CE4FF00005E1FBB9
:104AA00002E506F00042E0FB03E54FF00006E1FB03
:104AB00003569CF0000F18BF4EF0010EA4F1FF0446
:104AC000B6F5007F64F5407404D25FEA4E0E6D4186
:104AD00046EB060642EAC62141EA55514FEAC52097
:104AE00040EA5E504FEACE2EB4F1FD0C88BFBCF513
:104AF000E06F1ED8BEF1004F08BF5FEA500E50F1C4
:104B0000000041EB045170BD06F0004646EA010189
:104B100040EA020081EA0301B4EB5C04C2BFD4EBBB
:104B20000C0541EA045170BD41F480114FF0000EB4
:104B3000013C00F3AB8014F1360FDEBF002001F022
:104B4000004170BDC4F10004203C35DA0C341BDC9C
:104B500004F11404C4F1200500FA05F320FA04F06E
:104B600001FA05F240EA020001F0004221F00041A2
:104B700010EBD37021FA04F642EB06015EEA430E15
:104B800008BF20EAD37070BDC4F10C04C4F1200545
:104B900000FA04F320FA05F001FA04F240EA0200F8
:104BA00001F0004110EBD37041F100015EEA430EC9
:104BB00008BF20EAD37070BDC4F1200500FA05F2E9
:104BC0004EEA020E20FA04F301FA05F243EA020368
:104BD00021FA04F001F0004121FA04F220EA020077
:104BE00000EBD3705EEA430E08BF20EAD37070BDBD
:104BF00094F0000F0FD101F00046400041EB01019D
:104C000011F4801F08BF013CF7D041EA060195F07E
:104C1000000F18BF704703F00046520043EB030338
:104C200013F4801F08BF013DF7D043EA0603704725
:104C300094EA0C0F0CEA135518BF95EA0C0F0CD030
:104C400050EA410618BF52EA4306D1D181EA030176
:104C500001F000414FF0000070BD50EA410606BF70
:104C60001046194652EA430619D094EA0C0F02D1B5
:104C700050EA013613D195EA0C0F05D152EA0336FA
:104C80001CBF104619460AD181EA030101F0004118
:104C900041F0FE4141F470014FF0000070BD41F061
:104CA000FE4141F4780170BD70B54FF0FF0C4CF43B
:104CB000E06C1CEA11541DBF1CEA135594EA0C0F5A
:104CC00095EA0C0F00F0A7F8A4EB050481EA030EA7
:104CD00052EA03354FEA013100F088804FEA03338E
:104CE0004FF0805545EA131343EA12634FEA02225C
:104CF00045EA111545EA10654FEA00260EF000411D
:104D00009D4208BF964244F1FD0404F5407402D26E
:104D10005B084FEA3202B61A65EB03055B084FEAFF
:104D200032024FF480104FF4002CB6EB020E75EBFC
:104D3000030E22BFB61A754640EA0C005B084FEA24
:104D40003202B6EB020E75EB030E22BFB61A7546A1
:104D500040EA5C005B084FEA3202B6EB020E75EBEC
:104D6000030E22BFB61A754640EA9C005B084FEA64
:104D70003202B6EB020E75EB030E22BFB61A754671
:104D800040EADC0055EA060E18D04FEA051545EA60
:104D900016754FEA06164FEAC30343EA52734FEA09
:104DA000C2025FEA1C1CC0D111F4801F0BD141EA82
:104DB00000014FF000004FF0004CB6E711F4801FE7
:104DC00004BF01430020B4F1FD0C88BFBCF5E06FC7
:104DD0003FF6AFAEB5EB030C04BFB6EB020C5FEAD7
:104DE000500C50F1000041EB045170BD0EF0004E2C
:104DF0004EEA113114EB5C04C2BFD4EB0C0541EA5E
:104E0000045170BD41F480114FF0000E013C90E65A
:104E100045EA060E8DE60CEA135594EA0C0F08BF1E
:104E200095EA0C0F3FF43BAF94EA0C0F0AD150EA1D
:104E300001347FF434AF95EA0C0F7FF425AF1046B0
:104E400019462CE795EA0C0F06D152EA03353FF4D8
:104E5000FDAE1046194622E750EA410618BF52EA55
:104E600043067FF4C5AE50EA41047FF40DAF52EA29
:104E700043057FF4EBAE12E74FF0FF3C06E000BFC6
:104E80004FF0010C02E000BF4FF0010C4DF804CDD3
:104E90004FEA410C7FEA6C5C4FEA430C18BF7FEA93
:104EA0006C5C1BD001B050EA410C0CBF52EA430CC1
:104EB00091EA030F02BF90EA020F0020704710F141
:104EC000000F91EA030F58BF994208BF90422CBFD0
:104ED000D8176FEAE37040F0010070474FEA410CC9
:104EE0007FEA6C5C02D150EA013C07D14FEA430CE7
:104EF0007FEA6C5CD6D152EA033CD3D05DF8040B58
:104F0000704700BF8446104662468C461946634689
:104F100000E000BF01B5FFF7B7FF002848BF10F160
:104F2000000F01BD4DF808EDFFF7F4FF0CBF0120A5
:104F300000205DF808FB00BF4DF808EDFFF7EAFF21
:104F400034BF012000205DF808FB00BF4DF808EDDC
:104F5000FFF7E0FF94BF012000205DF808FB00BFD1
:104F60004DF808EDFFF7CEFF94BF012000205DF85B
:104F700008FB00BF4DF808EDFFF7C4FF34BF012068
:104F800000205DF808FB00BF4FEA410212F5001255
:104F900015D211D56FF47873B3EB625212D94FEA80
:104FA000C12343F0004343EA505311F0004F23FA6A
:104FB00002F018BF404270474FF00000704750EABF
:104FC000013005D111F0004008BF6FF0004070477C
:104FD0004FF00000704700BF4A0011D212F50012D6
:104FE00011D20DD56FF47873B3EB62520ED44FEA41
:104FF000C12343F0004343EA505323FA02F07047C1
:105000004FF00000704750EA013002D14FF0FF30FE
:1050100070474FF0000070474FEA4102B2F1E043A1
:1050200024BFB3F5001CDCF1FE5C0DD901F0004C8F
:105030004FEAC0024CEA5070B2F1004F40EB8300DF
:1050400008BF20F00100704711F0804F21D113F10B
:105050003872BCBF01F00040704741F480114FEA44
:105060005252C2F11802C2F1200C10FA0CF320FACD
:1050700002F018BF40F001004FEAC1234FEAD323EA
:1050800003FA0CFC40EA0C0023FA02F34FEA430354
:10509000CCE77FEA625307D150EA01331EBF4FF0DD
:1050A000FE4040F44000704701F0004040F0FE40F8
:1050B00040F40000704700BF80F0004002E000BFF5
:1050C00081F0004142001FBF5FEA410392EA030FF3
:1050D0007FEA226C7FEA236C6AD04FEA1262D2EB3D
:1050E0001363C1BFD218414048404140B8BF5B4242
:1050F000192B88BF704710F0004F40F4000020F0DB
:105100007F4018BF404211F0004F41F4000121F0F0
:105110007F4118BF494292EA030F3FD0A2F101023A
:1051200041FA03FC10EB0C00C3F1200301FA03F178
:1051300000F0004302D5494260EB4000B0F5000F9B
:1051400013D3B0F1807F06D340084FEA310102F15A
:105150000102FE2A51D2B1F1004F40EBC25008BF0C
:1051600020F0010040EA03007047490040EB0000D6
:10517000013A28BFB0F5000FEDD2B0FA80FCACF1D7
:10518000080CB2EB0C0200FA0CF0AABF00EBC25004
:1051900052421843BCBFD0401843704792F0000FF2
:1051A00081F4000106BF80F400000132013BB5E745
:1051B0004FEA41037FEA226C18BF7FEA236C21D0BB
:1051C00092EA030F04D092F0000F08BF0846704720
:1051D00090EA010F1CBF0020704712F07F4F04D1EE
:1051E000400028BF40F00040704712F100723CBF01
:1051F00000F50000704700F0004343F0FE4040F42B
:10520000000070477FEA226216BF08467FEA2363E8
:105210000146420206BF5FEA412390EA010F40F4D3
:10522000800070474FF0000304E000BF10F000431F
:1052300048BF40425FEA000C08BF704743F0964306
:1052400001464FF000001CE050EA010208BF704721
:105250004FF000030AE000BF50EA010208BF7047A8
:1052600011F0004302D5404261EB41015FEA010CBD
:1052700002BF84460146002043F0B64308BFA3F1B5
:105280008053A3F50003BCFA8CF2083AA3EBC25397
:1052900010DB01FA02FC634400FA02FCC2F12002B6
:1052A000BCF1004F20FA02F243EB020008BF20F0ED
:1052B0000100704702F1200201FA02FCC2F1200253
:1052C00050EA4C0021FA02F243EB020008BF20EA48
:1052D000DC70704753B94AB9002908BF00281CBFC9
:1052E0004FF0FF314FF0FF3000F0ECB9ADF1080C9A
:1052F0006DE904CE00F084F8DDF804E0DDE9022376
:1053000004B07047430803F05533C01A830803F014
:10531000333300F03330184400EB101000F00F303E
:1053200000EB002000EB0040000E704707EE900AF3
:10533000F5EEC07AF1EE10FA01D400F023B8F1EEE8
:10534000677A08B517EE900A00F01CF8404261EB4E
:10535000410108BD38B50022002304460D46FFF781
:10536000EBFD28B920462946BDE8384000F02AB8B0
:10537000204605F1004100F025F8404261EB410173
:1053800038BD00BFD0B5FFF70DFB0C4B0022064621
:105390000F46FFF75FFBFFF71FFE0446FFF7E0FA3B
:1053A000074B0022FFF756FB02460B4630463946B4
:1053B000FFF798F9FFF710FE2146D0BD0000F03D41
:1053C0000000F041D0B50C4B002206460F46FFF717
:1053D00041FBFFF701FE0446FFF7C2FA074B00222C
:1053E000FFF738FB02460B4630463946FFF77AF99D
:1053F000FFF7F2FD2146D0BD0000F03D0000F04176
:105400002DE9F047089D04468C46002B40F0838030
:105410008A42174647D9B2FA82F242B1C2F120005D
:1054200024FA00F09140974040EA010C94404FEA82
:105430001748230CBCFBF8F61FFA87FE08FB16C1C1
:1054400043EA014306FB0EF1994209D9FB1806F124
:10545000FF3080F01981994240F21681023E3B44B0
:105460005B1AA4B2B3FBF8F008FB103344EA034420
:1054700000FB0EFEA64509D93C1900F1FF3380F070
:105480000581A64540F2028102383C4440EA0640CC
:10549000A4EB0E0400261DB1D4400023C5E900434F
:1054A0003146BDE8F08702B9FFDEB2FA82F2002A87
:1054B00050D1CB1B4FEA174E1FFA87F80126B3FBDA
:1054C000FEFC210C0EFB1C3341EA034108FB0CF3EC
:1054D0008B4207D979180CF1FF3002D28B4200F2CF
:1054E000E9808446C91AA3B2B1FBFEF00EFB10118D
:1054F00043EA014408FB00F8A04507D93C1900F134
:10550000FF3302D2A04500F2D9801846A4EB08046C
:1055100040EA0C40BFE78B4209D9002D00F0B18072
:105520000026C5E9000130463146BDE8F087B3FAF0
:1055300083F6002E4AD18B4202D3824200F2B88019
:10554000841A61EB030101208C46002DA8D0C5E927
:10555000004CA5E7C2F1200320FA03F6974001FAB8
:1055600002F04FEA174ED9403043030CB1FBFEF670
:105570001FFA87F80EFB161143EA014306FB08F1F8
:10558000994204FA02F409D9FB1806F1FF3C80F0B5
:105590008D80994240F28A80023E3B445B1A81B280
:1055A000B3FBFEF00EFB103341EA034100FB08F3AE
:1055B0008B4207D9791800F1FF3C73D28B4271D925
:1055C00002383944CB1A40EA064678E7C6F1200C87
:1055D00003FA06F422FA0CF31C4320FA0CF701FA42
:1055E00006F34FEA144E21FA0CF11F433B0CB1FBBA
:1055F000FEF91FFA84F80EFB191143EA014109FB79
:1056000008FA8A4502FA06F200FA06F308D9611888
:1056100009F1FF3048D28A4546D9A9F1020921444F
:10562000A1EB0A01BFB2B1FBFEF00EFB101147EA7D
:10563000014700FB08F8B84507D9E71900F1FF3129
:105640002ED2B8452CD90238274440EA0940A7EBAE
:105650000807A0FB02894F45C64649461AD317D012
:105660005DB1B3EB0E0267EB010707FA0CFCF240E9
:105670004CEA0202F740C5E9002700263146BDE8A2
:10568000F0872E4628460BE70646E9E61846FDE673
:105690004345E5D2B8EB020E69EB04010138DFE7C0
:1056A0000846D2E760468DE78146B9E7664675E76A
:1056B00030464AE7ACF1020C394413E702383C4467
:1056C00024E700BF704700BF13B5C3B20C20154AD2
:1056D000584314180121105812F038FE684612F091
:1056E00079FC2389009340F203136068ADF804301D
:1056F000694600238DF8073012F02AFC01230A487E
:10570000A17A1A4612F02FFA074812F06AFA0648F0
:10571000022112F06EFA0028F9D0034812F066FA5E
:1057200002B010BD604E0308002101407FB5144A4D
:105730000123834008281360124B1AD00A2815D081
:10574000062819D000221A601B6800930023CDE9B7
:105750000233ADF8043004930B48012369468DF8F9
:10576000143012F0ADF907B05DF804FB4FF0807211
:10577000E9E74FF00072E6E74FF04072E3E700BF61
:10578000681B00206C1B00200021014000B58BB07D
:1057900012F088F904A812F0B9F9684612F0D4F9A9
:1057A00001214FF4007012F0F5FD00236846CDE9A9
:1057B0000033CDE9023312F0B3F90C20FFF7B6FF46
:1057C0000348012112F0C6F90BB05DF804FB00BFDD
:1057D0000021014038B5FFF777FFFFF7D1F800222D
:1057E000094BFFF737F9094B044618680D46FFF7D8
:1057F000B7F802460B4620462946FFF755FAFFF751
:105800000BFC00EE100A38BD00000840681B0020A9
:10581000F7B50C23164DC4B26343EF18E8580E4693
:10582000012112F093FD3A8900920023012E0CBF52
:1058300001221A46ADF806308DF804200DD18DF8FE
:1058400006300C2000FB0455012368688DF80530F4
:10585000694612F07DFB03B0F0BD022E03D0032E8B
:10586000EFD1022300E001238DF80730E9E700BF04
:10587000604E0308054B0C22C0B202FB00300A1E2A
:1058800018BF01220189406812F0B4BB604E0308C2
:1058900008B5064B0C22C0B202FB003001894068FB
:1058A00012F09EFB431E5842584108BD604E03084B
:1058B00010B5044686B0104812F0ACFD4FF4827269
:1058C0000023ADF808200C48ADF806304FF4007204
:1058D0000DF10601ADF80A30ADF80C30ADF80E3020
:1058E000ADF81020ADF81430ADF81630ADF8124018
:1058F00012F0ECFD06B010BD0030014070B503227F
:1059000092B00021012027F0BDFE414B0322186018
:105910000021012027F0B6FE3E4B1860012027F041
:10592000C4FF3D4B012118604FF4805012F032FD4E
:105930000121084612F00AFD01214FF4800012F007
:1059400005FD05221146354812F059FB3348052262
:10595000062112F054FB31480522072112F04FFBBB
:105960002F4B2E48202201A9CDE9012312F0F0FA95
:10597000802301A929480193402612F0E9FA01A9E0
:105980002648019612F0E4FA4FF48063002409934C
:10599000244B04934FF0C0654FF400332146224856
:1059A0000D93CDE90E4410940B940C9411940A9429
:1059B0000894079405940395069612F0DFF903A95D
:1059C000194812F0B1F9214618480694039512F0CF
:1059D000D5F903A9154812F0A7F907238DF801306E
:1059E0008DF802404423012468468DF800308DF87C
:1059F000034012F033FC382368468DF8003012F073
:105A00002DFC2820FFF754FF094B1C7012B070BD0D
:105A1000C01B0020B01B0020B81B0020000002406B
:105A2000020200020C30014088640240106402400F
:105A3000711B0020F8B501F17043B3F5803F0646B5
:105A40000C46174604D22B492B48E22223F0ACFF28
:105A500007F17043B3F5803F04D226492648E3227C
:105A600023F0A2FF254DEC60254C6E600122E7601B
:105A700010212846666012F0C7F901221021204645
:105A800012F0C2F91F49284612F0A6F91E49204615
:105A900012F0A2F90121284612F070F901212046E6
:105AA00012F06CF919480122022112F03AFD01228C
:105AB0001146164812F035FD1448012112F025FD5B
:105AC000134B4FF0FF31186828F076F801280ED1FB
:105AD000104B4FF0FF31186828F06EF8431E5C42FF
:105AE0005C410A48002112F010FD2046F8BD002458
:105AF000F7E700BFFC4E03080189030888640240F1
:105B000010640240400F00203D0080100030014032
:105B1000C01B0020B01B002010B5064B04464FF000
:105B2000FF31186828F048F82046BDE81040FFF71C
:105B3000BFBE00BFB81B00200348002300681A4600
:105B4000194627F0D7BD00BFB81B002013B50024AD
:105B5000224613480194102112F056F911491048B9
:105B600012F09CF90F490E4812F036F922460E4801
:105B7000022112F0D6FC0A48214612F0FFF80B4B26
:105B800001A9186827F012FF019B3BB1084B4FF0A9
:105B900080521A60BFF34F8FBFF36F8F02B010BDFA
:105BA000886402400008002000300140C01B002033
:105BB00004ED00E013B5002422461348019410219F
:105BC00012F022F91149104812F068F90F490E48F5
:105BD00012F002F922460E48012112F0A2FC0A48F6
:105BE000214612F0CBF80B4B01A9186827F0DEFE16
:105BF000019B3BB1084B4FF080521A60BFF34F8FAF
:105C0000BFF36F8F02B010BD10640240200000107F
:105C100000300140B01B002004ED00E0064A13787C
:105C20004BB9064B06491960064B5B1A06499B1097
:105C30000B60012313707047CC1B0020C41B002095
:105C4000CCFB030810FC0308C81B002008B5FFF7B5
:105C5000E5FF014B186808BDC81B002070B50D4654
:105C60000446FFF7DBFF094B1A68094B196800234C
:105C70009A4201DC002070BD51F823000678A6424C
:105C800002D14678AE42F6D00133F1E7C81B0020BE
:105C9000C41B00202DE9F0410646FFF7BFFF0B4B68
:105CA0001F680B4BD3F800800024A74203DC0025BB
:105CB0002846BDE8F08158F8245030466968FEF760
:105CC00023FB0028F4D00134EFE700BFC81B0020FD
:105CD000C41B002030B5034644680020844202DC27
:105CE0004FF0FF3030BD1A68155C8D42FAD0024487
:105CF000527802321044F1E7014B1868704700BF38
:105D0000D01B0020044B1B688342C3BF034B7C2283
:105D100002FB003000207047D01B00200000001064
:105D200008B5FFF7D7FFC043C00F08BDF8B504465C
:105D300017461D46FFF7CEFF061E10DB21688B19A4
:105D40006C1E5A789442A8BF14460236224631444B
:105D50003846FEF735FA00233B552046F8BD0023B0
:105D60003B704FF0FF34F8E730B51F4C8BB0236821
:105D7000CDF80A30A388ADF80E300546A3798DF82A
:105D80001030002117220DF111002EF037FD54F8CC
:105D90001E0F0090A388ADF8043005F170040023B5
:105DA00001212046CDF80630FFF7BAFF30B11E239F
:105DB0000DF10A0201212046FFF7B8FF022120461B
:105DC000FFF7AEFF28B10A236A4602212046FFF7FB
:105DD000ADFFAA6F054B9A4203D10549054824F04F
:105DE00087FA0BB030BD00BF0C4D0308E852030822
:105DF000174F030851D101082DE9F04FA54B8BB087
:105E00001D7800AF7B60002D40F086807D720CF025
:105E100079FF07F109000CF0BBFF064610B39E4C5A
:105E2000DFF8BCA2DFF87C92DFF8B8B2A8467B7A34
:105E300098451DDA2346702200215FFA88F00CF0A5
:105E4000EDFF002800F0B2802378EB2B68D0934957
:105E5000484624F04DFA42465946484624F048FA4E
:105E6000002697E08E498F4824F042FA7E72012680
:105E70008D4CD4F8008098F800304BB38B49042245
:105E800040462EF0F1FD18B3424689498548DFF8B7
:105E900058A2DFF81082DFF800B224F029FA216856
:105EA00039603A2308467B81FEF7AAFB083020F0D0
:105EB0000700E946ADEB000D396868462EF076FD27
:105EC00007F10A0168462EF041FE002877D1CD4641
:105ED000784C0EB17B7A23606F4E724A4FF0000807
:105EE000B146C346C246012120688045C0F28E807B
:105EF00001B92160DFF8F491DFF8F4B1DFF8A4A173
:105F00004FF0000823689845C0F2A8800DB1002327
:105F100023607A68012313702C37BD46BDE8F08FEB
:105F20000721204623F0EBFFE379C0B2834201D082
:105F300061498DE7237A0BB1604989E7617A04F101
:105F40000800023123F0DBFF534A617A7C2303FB14
:105F500008230B44C2B29B7A9A4204D0584948465F
:105F600024F0C6F977E704F10A03C4E91C3107F10C
:105F70000A021E23012104F17000FFF7D7FE6079A9
:105F800060B1A179FFF76AFE00B94E48A0672046CC
:105F9000FFF7EAFE08F101087C3448E7BB7A002BE2
:105FA000F3D007F10A00FFF775FEEDE738604246CF
:105FB0005146484624F09CF93B681E46EAE72060BB
:105FC000FFF768FE50B922683F49404624F090F937
:105FD00007F10A0100202EF0B9FD76E7C36913B975
:105FE000036A002BF4D07B7A042B0AD80133DBB28E
:105FF0007C227B72013B02FB03B334492268986721
:10600000E3E75146404624F073F9E1E7D9F8780018
:1060100080681AEA000008D02D4B184205D02D499F
:10602000104624F065F91F4A0021D9F87800C068AD
:106030001BEA000F05D02849104624F059F9194AE7
:106040000021D9F8783098684AEA000AD86808F13F
:1060500001084BEA000B09F17C0945E7BDB9B36FB4
:106060001B7C23B199F800205AB989F800301B4AEB
:10607000B36F11785B7C0B43137008F101087C3619
:1060800040E79342F3D05946504624F031F90125B8
:10609000EDE700BFD41B002000000010984F03085C
:1060A000464F030851D1010800000020E6500308C4
:1060B000EB500308D01B0020C24F0308F14F030828
:1060C00021500308E8520308125103084F510308F6
:1060D000F3E3FFFFBB51030834520308D61B002033
:1060E0009E500308545003087F510308D51B00201D
:1060F000AB520308014B1878704700BFD51B002036
:10610000014B1878704700BFD61B00204FF0A0400D
:10611000704700004FF4883070470000014B18684A
:10612000704700BFA42D002041F6FF7070474FF468
:106130008050704741F27A007047032970B50446D9
:10614000154603D8036903B15A5470BD0429FCD124
:10615000EA0702D5036A03B19847AB07F5D5636A2E
:10616000002BF2D0BDE87040184700002DE9F04741
:1061700004460F469046FFF7BFFDB4F1805F054629
:1061800020D2002619E0B4F5805F14D3A4F580591D
:10619000B5EB991F4FEA99100DDDFFF7B3FD836F43
:1061A00018F8062019F0200F0CBF5869986909F0FB
:1061B0001F01FFF7C2FF01360134BE42E3D30120C5
:1061C000BDE8F087230F013B4500B5EB530F4FEAC5
:1061D000530601DC0020F3E7304603F00105FFF72A
:1061E00091FD826F536905B19369002BF2D0D3F80A
:1061F00000E0BEF1000FEDD0701C28444246394645
:10620000A4EB0070F446BDE8F04760470346104633
:10621000CA18B2F5005F03D20A4699B206F094B9E3
:106220000020704710B45418702C04D85DF8044B4B
:1062300089B20CF057BE00205DF8044B7047000097
:1062400019F0A6B8B0F5805FF8B50D4611461BD21F
:10625000B0F5007F35D255FA80F3342BC2B230D876
:10626000040A342318486343C61803F52B731344F8
:10627000002786F8DC722A461844FDF7A1FF204665
:1062800022F056FE0120F8BDA0F58050B0F5007F49
:1062900017D255FA80F33D2BC2B212D8040A3D231F
:1062A00009486343C61803F50C731344002786F8A6
:1062B0006C722A461844FDF783FFE0B222F0FAFE22
:1062C000E0E70020DFE700BF902E01202DE9F34139
:1062D0001E468368044690460F46984710F0010F0B
:1062E0000CBF01250325820748BF45F02005430761
:1062F000636848BF45F040050BB145F004052368CD
:106300000BB145F00805237B0BB145F01005357046
:10631000236A626A003B18BF01230AB143F00203FB
:1063200073706369C6F80230A369C6F80630C6F810
:106330000A801122394606F10E002EF0D3FBE369E4
:10634000A3B13846FEF75CF933183A229A73E16933
:10635000019105460846FEF753F90F3501990246AB
:10636000701902B0BDE8F041FDF72ABF02B0BDE8E8
:10637000F08100002DE9F04F2DED028B83B000AFCE
:1063800006460C469046FFF7B7FCB6F1805F786092
:106390005ED22246002140462EF030FA002E54D123
:1063A00034B901200C37BD46BDEC028BBDE8F08F3F
:1063B0000323013C88F80030E4B24FF00109002CBF
:1063C000EFD06B4608EE103A7A6806EB09033B60A3
:1063D000013BB2EB931F4FEA9315E2DD90B02846E4
:1063E000FFF790FC82460021402268462EF006FA14
:1063F000DAF878104869EB4628B16A1C49686B46A0
:106400001207FFF763FFDAF87810886930B1AA1C29
:1064100049680BF120031207FFF758FF3B68A901F9
:106420000131591AC1F1400AA245A8BFA24608EBA2
:10643000090052465944FDF7C3FE18EE103AA4EB8A
:106440000A04E4B2D1449D46B9E74FF00009B6E72B
:106450007A68330F013B5000B0EB530F4FEA5309FA
:1064600001DC00209EE7484603F00105FFF74AFCE7
:10647000826F536905B19369002BF2D05B68002BE2
:10648000EFD009F10100284442462146A6EB0070F6
:10649000984787E7F0B5B0F5805F87B004460E46B1
:1064A000154610D2204F4FF48071384602F0AAFFF3
:1064B000CDE9000700232A463146204602F0EEFAD5
:1064C000012007B0F0BDA0F58053B3F5805F0AD27C
:1064D000154F4FF48071384602F0D8FF4FF48053C7
:1064E000CDE90007E7E710F0FF01A0F5005716D14E
:1064F0000D2E16D1102202A82EF080F902A9C7F3A2
:10650000072002F03BFF039B2B60049B6B60059B05
:10651000AB60029B003B18BF01232B73D0E7002028
:10652000CFE70846CDE700BF2423002010B4084C75
:106530000B46246811461A18A24204D85DF8044B91
:106540001A4605F0B7BC00205DF8044B704700BF49
:10655000A42D002003461046CA18B2F5005F03D2EE
:106560000A4699B205F0D8BF0020704710B45418FD
:10657000702C04D85DF8044B89B20CF04FBC00209D
:106580005DF8044B7047000018F014BF0346B3F5E4
:10659000805F10B5104612D2B3F5007F20D251FAB9
:1065A00083F4342CDAB21BD81B0A342404FB0323F3
:1065B0000A460C491944FDF703FE012010BDA3F55E
:1065C0008053B3F5007F0BD251FA83F43D2CDAB23D
:1065D00006D81B0A3D2404FB03230A460249E9E7C7
:1065E0000020EBE73C310120C030012001481BF0C6
:1065F0006BBD00BF0C5303082DE9F843FFF726FBE2
:10660000FFF7FAFBFFF7F2FFFFF776FB1449DFF81D
:106610005880144FDFF8549002460646114823F084
:1066200067FE0024B44201DBBDE8F8832046FFF793
:1066300069FB836FDA69054652B15A6852B1234645
:106640004946384623F054FEAB6F2846DB6998472D
:106650000134E7E722464146384623F049FEF3E796
:106660004453030851D101089353030861530308AD
:106670002DE9F047FFF740FBDFF84490DFF8448056
:10668000DFF844A0064600240127B44202DB384666
:10669000BDE8F0872046FFF735FB836F1B6A3BB1EF
:1066A00098472246054628B15146404623F020FE31
:1066B0000134EAE74946404623F01AFE2F46F7E741
:1066C000D753030851D10108B853030870B5134DCF
:1066D000134E034604462A4603CAB2422060616054
:1066E000154604F10804F6D10E4D0F4E03F12804AF
:1066F0002A4603CAB24220606160154604F10804CC
:10670000F6D10A4C0A4D5033224603CAAA421860F9
:106710005960144603F10803F6D170BD0000024031
:106720002800024000040240280402400008024001
:106730002808024070B5114D0246034600F12806B4
:10674000186859682C4603C40833B3422546F7D16C
:106750000B4D02F15006186859682C4603C40833E3
:10676000B3422546F7D1074D7832186859682C4650
:1067700003C4083393422546F7D170BD00000240A0
:1067800000040240000802402DE9F8430F4CDFF8F6
:106790004080DFF8409005460127002634F8021CAF
:1067A00054F8060C11F01CFC854206D02B462246FC
:1067B0004146484623F09CFD002701360B2E04F18C
:1067C0000C04EBD13846BDE8F88300BF0A00002076
:1067D000F853030851D101082DE9F041A2B00EF0A1
:1067E000D7FD01210446072011F0B0FD04A8384D63
:1067F000FFF76CFF00262F46B046BB8857F80C0BFE
:1068000002A90136CDE9023811F0A2FB0B2EF4D11A
:1068100000264FF0010837467CB3AB882868029306
:1068200002A9ADF80C808DF80E7011F091FBA988CB
:10683000286811F0DBFB0197019BB3F57A7F3EDB03
:106840000120FFF7A1FFA9880446286811F0D0FBBA
:106850000197019BB3F57A7F35DB0020FFF794FFAA
:106860000136002802A955F80C0B8DF80C7008BFF2
:10687000002411F06DFB0B2ECED104A8FFF75AFFB8
:10688000CCB101231348ADF80C308026002302A9B7
:106890008DF80E304025029611F05AFB0D480295F6
:1068A00002A911F055FB0B48314611F0A1FB094834
:1068B000294611F09DFB204622B0BDE8F081019BE6
:1068C00001330193B8E7019B01330193C1E700BF96
:1068D00004000020000402402DE9F04FA5B00EF0A6
:1068E00057FD01210446072011F030FD06A8DFF80E
:1068F000C081FFF7EBFE002546462F46B38856F8C9
:106900000C0B04A90135CDE9043711F021FB0B2D47
:10691000F4D10026664D4FF0010B3746002C51D0C4
:10692000AB882868049304A9ADF814B08DF81670EC
:1069300011F00EFBA988286811F058FB0397039B00
:10694000B3F57A7F5CDB4346A1464FF0000A184658
:106950000121019300F05AF90AF1010A0028019B74
:1069600008BF4FF00009BAF10B0F03F10C03EED191
:10697000A988286811F03CFB0397039BB3F57A7F45
:1069800042DB43464FF0000A18460021019300F015
:106990003DF90AF1010A0028019B08BF0024BAF161
:1069A0000B0F03F10C03EFD1002C55F80C0B8DF8F5
:1069B000147004A906F1010618BF4C4611F0C8FA7C
:1069C0000B2EABD13B4D00262F46B046BB8857F867
:1069D0000C0B04A90136CDE9043811F0B9FA082EE0
:1069E000F4D1CDF80C8042F20F72039B93420FDD7D
:1069F00000260C2784B90024204625B0BDE8F08F7E
:106A0000039B013303939AE7039B01330393B4E79A
:106A1000039B01330393E8E707FB0650012100F0D5
:106A2000F5F80136042E0446E4D101274FF00008A2
:106A300042F20F79002CDED0AB8E286B04A9CDE991
:106A4000043711F085FAA98E286B11F0CFFACDF832
:106A50000C80039B4B4526DD2846002100F0D6F82C
:106A60000136082E044605F10C05E3D10028C2D0FA
:106A700001238026ADF8143004A900230E488DF8B8
:106A800016304025049611F063FA04A90A480495CB
:106A900011F05EFA3146084811F0AAFA0648294674
:106AA00011F0A6FAA8E7039B01330393D1E700BFD7
:106AB0008800002048010020000402402DE9F8432E
:106AC0000F4CDFF84080DFF8409005460127002694
:106AD00034F8021C54F8060C11F082FA854206D0F4
:106AE0002B4622464146484623F002FC0027013649
:106AF000052E04F10C04EBD13846BDE8F88300BF45
:106B000012010020F853030851D101082DE9F0418A
:106B1000A2B00EF03DFC01210446072011F016FC46
:106B200004A8384DFFF7D2FD00262F46B046BB889B
:106B300057F80C0B02A90136CDE9023811F008FA1A
:106B4000052EF4D100264FF0010837467CB3AB8800
:106B50002868029302A9ADF80C808DF80E7011F030
:106B6000F7F9A988286811F041FA0197019BB3F55C
:106B70007A7F3EDB0120FFF7A1FFA9880446286841
:106B800011F036FA0197019BB3F57A7F35DB0020CF
:106B9000FFF794FF0136002802A955F80C0B8DF879
:106BA0000C7008BF002411F0D3F9052ECED104A833
:106BB000FFF7C0FDCCB101231348ADF80C3080269F
:106BC000002302A98DF80E304025029611F0C0F97D
:106BD0000D48029502A911F0BBF90B48314611F09E
:106BE00007FA0948294611F003FA204622B0BDE809
:106BF000F081019B01330193B8E7019B01330193BD
:106C0000C1E700BF0C0100200004024038B50D466A
:106C100004468188006811F0E3F9854207D00549F0
:106C200005482B46A21D23F063FB002038BD012040
:106C3000FCE700BF786A030851D101082DE9F34150
:106C40001FF0B0F82A4E2B4D2B4F3078002849D03A
:106C50002A4B2B4C042200219E4613F8018B14F87A
:106C600001CBE0451CBF03F801CC0146013AF4D149
:106C700031B12448CDF800E004232E2106F0CCF9F0
:106C80003B78012B2ED9204B204C1B7822789A423E
:106C90000DD0237001231A461A4800942E2106F0C5
:106CA000BBF91B4B22781B481A7019F01BFF2B787D
:106CB00023B94FF47A7027F061FEC6E7DFF85C80F5
:106CC00027F0F6FCD8F80030984204460AD9124B57
:106CD00000930C48012302222E21643406F036F979
:106CE000C8F800402B78002BE3D00A20E3E700BF70
:106CF000DC1B0020D91B0020D81B0020A90100208C
:106D0000AE010020AC040020AD010020A80100204D
:106D1000DA1B002010FC0308D71B0020E01B00201A
:106D200010B5104B1878A0B10F491048104CFDF762
:106D3000EBFA78B90123237022780E4C002A14BF95
:106D400001220022227003D10B490C4823F0D0FA13
:106D5000207810BD04490A48FDF7D6FA0028EBD187
:106D60000223E8E7721B0020E41B0020BC6A030832
:106D7000D81B0020DC1B0020D46A030851D1010875
:106D8000C86A030873B5124E3478F4B9114D12492C
:106D900012480194032300939622234627F00AFB0E
:106DA0000D22214628462DF029FD0C2310222E21EC
:106DB0000B48009506F0CAF80A4B0B4918702A4692
:106DC0000A4823F095FA0123337002B070BD00BF6A
:106DD000721B0020E41B0020F96A03083D6C0008C8
:106DE000AC040020DB1B00200A6B030851D1010812
:106DF000034B1878034B1B780BB140F0040070472D
:106E0000731B0020581E0020044B1878044B1B787D
:106E1000022B08BF40F00400704700BF731B002026
:106E2000301D002001207047F8B5174F0125C820FC
:106E30003D7027F0A3FD154B1C7829462046FEF730
:106E4000E7FC00212046FEF715FD114B1E78294670
:106E50003046FEF7DDFC00213046FEF70BFD0A2030
:106E600027F08CFD29462046FEF704FD022120462E
:106E7000FEF7CEFC642027F081FD00213046FEF7AE
:106E8000C7FC02233B70F8BD301D00205C4E030898
:106E9000594E0308024B1B780BB908F0A5BC70478C
:106EA000301D002038B5084D04462B7833B96421D5
:106EB000204608F0FDFC0028F7D038BD4FF0FF3029
:106EC00027F05CFDF1E700BF301D002008B51EF083
:106ED00069FF4FF47A7027F051FD034C4FF0FF31FA
:106EE000204608F04DFBF9E7601C0020F7B5294F5C
:106EF0003C78002C4BD10125234627492748019493
:106F00009622009527F056FA22466821042026F0A2
:106F1000B9FB234B224667211860042026F0B2FB00
:106F2000204B186025F08BFE1F4B186025F087FE64
:106F30001E4B18601E4B1E7829463046FEF768FC33
:106F400021463046FEF796FC4FF4E13008F014FB82
:106F50004FF4E13008F082FB164917482346962289
:106F6000CDE9005427F026FA234696221349144807
:106F7000CDE9005427F01EFA29463046FEF77AFC88
:106F800002213046FEF744FC00F050FA3D7003B099
:106F9000F0BD00BF731B0020546B0308CD6E0008CA
:106FA000A01D0020341D00200C1E00205C1C0020B1
:106FB0005C4E0308606B0308397100086F6B0308AF
:106FC000C56F00082DE9F04385B01EF0EBFEFF23EE
:106FD00064204F4CADF80E3027F0D0FC27460DF161
:106FE0000E010220FFF756FF642027F0C7FC20683F
:106FF000002125F0BDFEC007F1D5464E3546DFF82D
:1070000034814FF0FF394446D8F8000026F090FF55
:10701000034668B9CDF8009006213868012225F0B2
:107020001DFE810704D50DF10E010220FFF732FF8E
:10703000206826F07DFF0028E6D0374CD8F8000005
:107040000022214626F010FDFF23337023781B0910
:1070500005D03249324840F21B1222F0A5FC637879
:107060001B0905D02D492F484FF48E7222F09CFC4D
:10707000A388622B05D929492B484FF48F7222F03F
:1070800093FC63782178A2882848DB0001F007018F
:1070900003F038030B43A17843EA8113A97803F086
:1070A0007F0321F07F0102F102080B435FFA88F8A9
:1070B0001F49AB70E378EB7085F80180FDF780F82D
:1070C00008F10201134A2944002391421CD8A84424
:1070D00088F802304FF0FF38CDF800800122386880
:1070E0000023032125F0BAFD8207044604D50DF1E3
:1070F0000E010220FFF7CEFEE307EDD5687831469A
:107100000330FFF7C7FE7AE712F8010B4340DCE7D4
:107110000C1E0020A41D0020C81C00207E6B03084C
:107120009F6B0308C56B0308E66B0308A81D0020CE
:10713000CE1C0020A01D0020F7B51EF033FE204C11
:10714000204D661C1E48FFF7ADFE2378FF2BF9D1BA
:107150003046FFF7A7FE63785BBB01211A4B186826
:1071600025F02AFEEEE7E019FFF79CFE3B46627829
:107170005F1C013B9A42F6DC0DF10700FFF792FE1F
:1071800063780F490233234400228B4213D89DF8C1
:107190000730934204D00D490D48C82222F004FC68
:1071A0002146286800234FF0FF3226F0A3FA02217F
:1071B000D4E70123DBE711F8010B4240E5E700BF0C
:1071C000381D0020341D00200C1E00207E6B03089B
:1071D000306C030838B5104D104B0446294618682A
:1071E0004FF0FF3226F040FC6A78023A92B2A28059
:1071F000AB78C3F302032370AB78C3F3C2036370AD
:10720000EB78E370AB78C3F38013A370291DA01D46
:10721000BDE83840FCF7D4BF611C0020341D0020BD
:1072200008B501460648002300684FF0FF3226F0FB
:1072300061FA044B04211868BDE8084025F0BCBD84
:10724000A01D00200C1E002009484FF4817310B5CA
:10725000038040F201134380102383710124848052
:10726000FFF7DEFF642027F089FB024B1C7010BD86
:10727000F21B0020581E00202DE9F04F3B4C994690
:107280004FF48273238040F6017385B00F46924617
:107290006380064680B90223A37104236372D9F880
:1072A0001030E0712072A0721B68C4F80B302046C9
:1072B0000923A380FFF7B4FFDFF8C0802C48D8F87B
:1072C0000050C5F1400B5F453A4628BF5A46B318F7
:1072D00051462844CDE90223FCF772FF029A2A4462
:1072E000402AC8F8002005D0D9F81010039B09687F
:1072F000994218D11E491F480292403DFCF760FF99
:10730000029A1A48A2803D44FFF78AFF00239D425B
:10731000C8F8003007DD16482A460AEB0B01FCF7D7
:107320004FFFC8F80050D9F810301A683E44964212
:1073300018D104220025A2716272E5712572A5722E
:107340001B680A48C4F80B300923A380FFF768FFC5
:107350004FF0FF3308480093012200682B46114686
:1073600025F07CFC012005B0BDE8F08FF21B002069
:10737000101E0020F81B00205C1C0020501E002066
:10738000024B0121186825F017BD00BF5C1C0020CE
:1073900007B51EF007FD1C4C1C4E1D4D1A48FFF78B
:1073A00019FFE278042A0CD00F2A24D0022A63782D
:1073B00025D1022B174A19D11749284622F098FFE8
:1073C000ECE7A379312B09D1A37A0193637A009377
:1073D000E279237A1149284622F08AFFA379322BD9
:1073E000DCD13146284622F083FFD7E7042B0CBFBF
:1073F0000B490C49E1E72046FFF7C2FFCEE70A49F7
:10740000284622F075FFC9E75A1E0020EE6C0308DB
:1074100051D10108601E0020146D0308BC6C0308E4
:107420001E6D0308276D0308336D030807B500239D
:107430000122CDE9002306490648962226F0BAFF2C
:107440000549064803B05DF804EB22F051BF00BFC8
:10745000706D0308917300087E6D030851D1010817
:10746000002007F061BD10B50446802007F05CFDE8
:10747000A0B2BDE8104007F067BD000010B5054C94
:10748000237833B907F0E4FC03480BF0E9F9012352
:10749000237010BD741B0020B40100202DE9F04FB3
:1074A0002DED028B8DB01EF07DFC0EF085FCDFF81B
:1074B00004A1DFF82491DFF8248106460F460A2054
:1074C00027F05CFA3B4999F8000007F099FFBAF9F8
:1074D00004506D422DB285EAE573A3EBE5739BB2D0
:1074E000632B60D8BAF90240644224B284EAE473A0
:1074F000A3EBE4739BB2632B55D82F4B1A782F4B19
:10750000002A4CD0BAF80A20DFED2D6ADFED2D7A83
:1075100007EE102AB8EE477AE7EE267AB0EE677AE1
:10752000DFED297AB4EEE77AF1EE10FA58BFF0EE0B
:10753000477AC3ED007A254A1278002ABFD19AF81B
:107540000020B02ABBD1D3F800B00EF035FC801B70
:1075500061EB0701FDF778FEDFED1D7A07EE100AFB
:1075600087EE278A0EF028FC0623064668460F465B
:107570008DF80030CDF810B0CDF814B007EE905A69
:10758000F8EEE77A8DED068ACDED027A07EE904AA5
:10759000F8EEE77ACDED037A19F0B6F98FE70D4AE8
:1075A00012681A60C7E798F80030013388F8003095
:1075B00085E700BF90320120C51E0020C0010020D9
:1075C000B84B513AB6F3DD3ECDCCCC3DC61E0020C3
:1075D00000247449BC0100205B4E0308C41E002037
:1075E00010B5084B1C7834B10748FEF753FBBDE8D3
:1075F0001040036A18470549054822F079FE2046E5
:1076000010BD00BFC31E0020A7570308C86D0308A4
:1076100051D1010837B50F4D2B78CBB90E4B1C78E3
:10762000B4B90E48FEF736FBC369204698470C4BA9
:10763000187807F0FBFC58B10323009309490A4866
:10764000019423464FF4967226F0B4FE01232B706A
:1076500003B030BDC21E0020C31E00209D5703088A
:107660005B4E0308F56D03089D74000837B50F4B9A
:107670001B78CBB90E4D2C78B4B90E48FEF70AFB37
:10768000C369204698470C4B187807F0CFFC58B1D7
:107690000323009309490A48019423464FF4967244
:1076A00026F088FE01232B7003B030BDC21E0020DF
:1076B000C31E0020A75703085B4E0308F56D03089F
:1076C0009D74000810B5084B1C7834B10748FEF7CC
:1076D000E1FABDE81040036A18470549054822F061
:1076E00007FE204610BD00BFC21E00209D570308A4
:1076F000C86D030851D10108182070472C2070472D
:1077000070B571B1124A034600F1240114781C705F
:1077100054785C7094789C7003338B4202F10302BE
:10772000F4D1047841788278034600F12105DE78AF
:107730001E701E795E705E799E700333AB42F6D187
:1077400080F8214080F8221080F8232070BD00BF0F
:10775000F46E030830B5214B09B100221A6093ED95
:10776000007A1F4D1F4C2049F7EE007AB4EEE77AFD
:10777000F1EE10FA44BFDFED1D7A77EE277A00F1C3
:107780002402C3ED007A2B7807EE103AB8EEC77AE0
:10779000033027EE277ABCEEC77A17EE103A00F8CE
:1077A000033C237807EE103AB8EEC77A27EE277A23
:1077B000BCEEC77A17EE103A00F8023C0B7807EEE1
:1077C000103AB8EEC77A27EE277ABCEEC77A17EEE2
:1077D000103A00F8013C8242D5D130BDEC1E0020A9
:1077E000460200204502002044020020CDCC4C3D42
:1077F000F0B500F1240439B1034600221A705A7022
:107800009A7003339C42F9D1104940F20F2540F29F
:1078100003160B784A78DF08DB0003F0380343EAED
:10782000521302F01F026F4373436A431737213329
:107830001732BF119B119211077043708270033091
:10784000844201F10201E4D1F0BD00BF2F1F0020EE
:107850007FB51B4B1A681B798DF80A30194BCDF890
:10786000062000211A681B79CDF80B208DF80F3007
:107870000DF10602FF260D4612F8013B03EB430310
:10788000C41801310529C6546570A570F4D10025CE
:107890000DF10B012B46FF2411F8012B02EB4202E4
:1078A00086180135052D83547470B370F4D10470BB
:1078B000447084708374C374037504B070BD00BFDA
:1078C000446E03084A6E030870B571B1124A03464C
:1078D00000F1240114781C7054785C7094789C70CA
:1078E00003338B4202F10302F4D1047841788278A9
:1078F000034600F12105DE781E701E795E705E7908
:107900009E700333AB42F6D180F8214080F82210FC
:1079100080F8232070BD00BF7E6E030870B599B15A
:107920000C2216491546B2FBF5F305FB132303EBB6
:1079300043030E78C654C4184B7863708B78A370D9
:10794000013A01F10301EED190F8214090F82210A4
:1079500090F823200346A0F121059E7F83F8216043
:10796000DE7F83F8226093F8206083F82360033B76
:10797000AB42F2D104704170827070BD5A6E030840
:1079800037B5044611B1174B00221A601648019111
:10799000FFF7B6FE01991548FFF7C0FF1249134AD9
:1079A0002046243413780D785B0803EB55030370ED
:1079B00053784D785B0803EB5503437093788D78CB
:1079C0005B0803EB550383700330A04201F1030110
:1079D00002F10302E6D1034A13680133136003B0D6
:1079E00030BD00BF981F00209C1F0020C01F00203A
:1079F00030B500F1240439B1034600221A705A70E0
:107A00009A700333A342F9D10D4A1368092B4FF042
:107A100000010EDCDD070CD5FF250170417085707B
:107A20000330A042F9D10133132BC8BF00231360E8
:107A300030BD01704170817003308442F9D1F2E7AA
:107A4000F41F00200D4B0E481988B0F90020114496
:107A500089B2B1F57A6F198007D9524202804FF48A
:107A60007A621A8018880AF0F3BEB1F5FA6FF9D27B
:107A7000524202804FF4FA62F3E700BFF413002091
:107A8000F61300202DE9F043674B684D1B682A6808
:107A9000674C6849684E9342684A4FD0DFF8A4812A
:107AA00094ED007AD8ED007ADFF89CE191ED006A60
:107AB000DFF898C1624FDFF89C912B60C7EE276A10
:107AC000D9F80090C8F80090C3F30748C4F80090B4
:107AD000F7EE007A77EEE67A9EED007A27EE877A67
:107AE000A6EE267A92ED006A81ED007A9CED007A8E
:107AF00027EE877AA6EE267A82ED007A97ED007A55
:107B000067EE877A96ED007AE7EE267AC6ED007A80
:107B100007EE908AF8EEE77ACEED007AC3F3072EEF
:107B200007EE90EAF8EEE77ACCED007A5FFA83FC94
:107B300007EE90CAF8EEE77AC7ED007AD4ED007A46
:107B4000F5EEC07AF1EE10FA00F124053FDD3D4B71
:107B500091ED006A93ED007A3B4BC7EE876AF7EE32
:107B6000007A77EEE67A93ED007A384B27EE877A43
:107B7000A6EE267A92ED006ABDEEC77A17EE101ACD
:107B800093ED007A2E4B27EE877AA6EE267ABDEE8D
:107B9000C77A17EE102A93ED007A67EE877A96ED92
:107BA000007AE7EE267AFDEEE77A17EE903A01705A
:107BB0004270837003308542F9D1D4ED007A9FED95
:107BC000247A77EEC77AC4ED007ABDE8F083002707
:107BD0002760C3F3074406EE904AF8EEE66AC1ED6B
:107BE000006AC3F30721DBB207EE101A07EE903AE2
:107BF000B8EEC77AF8EEE77A82ED007AFCEEE66A34
:107C0000BCEEC77AC6ED007AFCEEE77A16EE901A63
:107C100017EE102A17EE903A01704270837003300D
:107C2000A842F9D1D1E700BF201F00204002002068
:107C3000CC010020D4010020C8010020D001002088
:107C4000E41F0020C4010020EC1F0020E81F0020DA
:107C5000CDCC4C3D2C02002037B5044623F089FCE6
:107C600007EE900ADFED1D6A9FED1D6AB8EEE77A18
:107C7000DFED1C7AE7EE267A204600252434FCEE60
:107C8000E76ACDED016ADFED186A9DF80420E7EEA2
:107C9000066ABCEEE67A17EE103A9FED147AF4EE1F
:107CA000C76AF1EE10FAC8BF4FF0FF33DBB2F4EE53
:107CB000C77AF1EE10FA0EDCF5EEC07AF1EE10FAAA
:107CC0004CBF002111460170437085700330A04203
:107CD000EDD103B030BDFF21F5E700BFC9C8C8BE74
:107CE000C9C8C83E0000C8420000000000007F4331
:107CF000F8B5224E224F33680133054609D1214998
:107D0000214819F08FFC21493060214819F08AFC84
:107D1000386026F0CDFC044630881AF0CBF8241ADF
:107D2000A4B21E2C388828BF1E241AF043F840B293
:107D3000184B1949032808BF012204EB4406A4EBA1
:107D4000840408BF1A7064340A681F782846F6B2A3
:107D5000E4B2243500236FB1092A0BDC03704370B1
:107D6000837003308542F6D10132132AD8BF1346FF
:107D70000B60F8BD06704470F2E700BF38020020C7
:107D80003C020020285E0308325E030815560308F3
:107D90003C580308C71E0020F81F002073B5204977
:107DA0000446204819F03EFC1AF084F81E490546A6
:107DB0001C4819F037FC1AF055F8DFED1C7A9FEDDE
:107DC0001C7A30EE670ADFED1B7AE0EE077A9FED52
:107DD0001A7AF4EEC77AF1EE10FA19DCF5EEC07AF1
:107DE000F1EE10FA16D4FCEEE77ACDED017A9DF8AB
:107DF0000420234604F124006421D44300265DB10D
:107E00001C705A709E7003339842F8D102B070BD56
:107E1000FF22EEE70022ECE7197059709970F2E743
:107E20008558030896580308805803080000AA42A2
:107E30003333A3C00000000000007F43F7B5314991
:107E40000446314819F0EEFB1AF00CF82F4A30497D
:107E50009FED307ADFED305A9FED305A20461546BF
:107E600024340E46B0EE476A0027D2ED007AD1EDF9
:107E7000006A76EEE76A70EE677AC5EEA64AF0EE23
:107E8000476AE4EEA76AF4EEC76AF1EE10FA30DC56
:107E9000F5EEC06AF1EE10FA2DD4FCEEE67ACDEDE7
:107EA000017A9DF8043003704770D5ED007AD6ED65
:107EB000006A76EEE76A70EE677AC6EE264AF0EE62
:107EC000456AE4EEA76AF4EEC66AF1EE10FA14DC35
:107ED000F5EEC06AF1EE10FA11D4FCEEE67ACDEDC3
:107EE000017A9DF80430837003308442BDD103B021
:107EF000F0BDFF23D7E70023D5E7FF23F3E70023F7
:107F0000F1E700BF3F5803083C580308280200204F
:107F10003002002000007F4300007FC3000000000B
:107F2000F8B5424E424D434F0446306800280FDA00
:107F30004149424819F076FB414930603F4819F009
:107F400071FB404928603D4819F06CFB3860F8BD72
:107F500080B219F087FFFDEEC07A288817EE906A8C
:107F600019F080FFFDEEC07A388817EE905A19F0AC
:107F700079FF354B9E423246B8BF1A46B2F5007FB4
:107F8000FDEEC07AA8BF4FF400729D4217EE900A32
:107F90002946B8BF1946B1F5007FA8BF4FF400715C
:107FA0008342B8BF0346B3F5007FA8BF4FF4007308
:107FB000002EACBF01264FF0FF36002D02FB06F26B
:107FC000ACBF01254FF0FF35002801FB05F1ACBF28
:107FD00001204FF0FF30092A03FB00F3CCBF521001
:107FE00000220929CCBF49100021092B2046CCBF13
:107FF0005B1000232434B3F5807F14BF1D46FF259A
:10800000B1F5807F057014BF0D46FF25B2F5807F66
:10801000457014BF1546FF2585700330A042EAD194
:108020000A4A13780133137091E700BF340200202D
:10803000241F0020281F0020E4670308E1580308DC
:10804000EF6703082163030800FEFFFFF01E002016
:10805000F8B5434F434E3B78434D2DED028B04461C
:108060005BB94249424819F0DDFA42493060404864
:1080700019F0D8FA012328603B70308819F0F2FE1D
:108080002888F0EE408A19F0EDFEB5EE400AF1EED8
:1080900010FAB0EE408A5FD088EE880A28F008FF18
:1080A000DFED357AB5EEC08AF1EE10FA70EE277A80
:1080B00003D59FED327A77EE877A28EE088AF2EEC2
:1080C000086AA8EEA88A2046002267EEA67A9FEDED
:1080D0002C7AC7EE875AB1EEC87ADFED2A7AB4EE71
:1080E000E77AF1EE10FAD4BFBDEEC77A9FED267A9B
:1080F000B8EEC77AF0EE047A87EE276AB1EE085A36
:10810000B1EE466A07EE902AF8EEE77AF0EE474ABB
:1081100075EEE77A0132F0EEE77AF4EEC57AF1EE29
:1081200010FAC8BF76EEE77A0330E6EE274AFDEE96
:10813000E47A17EE903AFF2BDABF23EAE373DBB25F
:10814000FF230C2A00F8033C00F8023C00F8013C35
:10815000D8D1BDEC028BF8BDDFED0C7AADE700BFE6
:108160002E1F00208C1F0020941F0020CF620308C8
:1081700067660308C5620308DB0FC93FDB0F494090
:10818000DB0FC94000007F43FF000000000000003B
:10819000002110B50B481DF0B3FF0B4B0B481B78AB
:1081A000102163B10FF022FF094C237833B1012372
:1081B000237226F07DFA00236060237010BD0FF05B
:1081C00017FFF1E7958500082C1F002000040240EE
:1081D000741F002008B50B4611461A18282A06D825
:1081E0001A46044B1844FBF7EBFF012008BD0020A2
:1081F000FCE700BF4C1F002008B503461046CA1814
:10820000282A06D80A4604491944FBF7D9FF012059
:1082100008BD0020FCE700BF4C1F002008B50B463E
:1082200011461A18182A06D81A46044B1844FBF7A8
:10823000C7FF012008BD0020FCE700BF2F1F002062
:1082400008B503461046CA18182A08D80A46054930
:108250001944FBF7B5FF003818BF012008BD002006
:10826000FCE700BF2F1F002041B100F124020023D2
:1082700003704370837003309042F9D1704700005F
:1082800070B5234B09B100221A6093ED007A214C9E
:10829000214DF7EE007AB4EEE77AF1EE10FA44BF22
:1082A000DFED1E7A77EE277AC3ED007A237803EBB1
:1082B00043016A186E5C5578917800F124020670CB
:1082C0004570817003309042F9D1154D15482978D9
:1082D00002780131C9B20132D2B204292970027088
:1082E00009D90021013329700321B3FBF1F101EB1E
:1082F00041015B1A23700C2A09D90B4A0023037031
:108300001378B3FA83F35B091370084A137070BDD6
:10831000F41E0020F11F0020D86E0308CDCC4C3D88
:10832000F01F00202D1F0020F21F00202C1F002016
:10833000F0B52DED028B044683B049B1034600F140
:10834000240100221A705A709A7003338B42F9D1BB
:10835000694F6A4E3B686A4D002B12DA69496A48D8
:1083600019F060F969493060674819F05BF96849AC
:108370002860654819F056F9386003B0BDEC028BEF
:10838000F0BD308819F06EFD2888B0EE408A19F0F3
:1083900069FDFBEE047AB4EEE78AF1EE10FAB3EE73
:1083A000047A00F18D80B4EEC78AF1EE10FA00F382
:1083B0008A80F1EE486AB4EEE70AF1EE10FA00F1B5
:1083C0008580B4EEC70AF1EE10FA00F38280B1EEB8
:1083D000400AF5EEC06AFFEE007AF1EE10FAB7EE51
:1083E000007AB5EEC00AB4BFB0EE676AB0EE476A75
:1083F000F1EE10FAB8BFB0EE677A26EE866A60EE4C
:10840000077A66EE266A27EE800AF2EE047A36EEE6
:10841000A76A9FED407AB4EEC76AF1EE10FA5BDC12
:10842000B5EEC06AF1EE10FA58D4BCEEC66A8DED16
:10843000016A9DF8043084F8213037EEC06A237059
:10844000B4EEC76AF1EE10FAE37049DCB5EEC06A2B
:10845000F1EE10FA46D4BCEEC66A8DED016A9DF8C5
:108460000430237277EEE66AE372F4EEC76AF1EE47
:1084700010FAA37338DCF5EEC06AF1EE10FA35D4C9
:10848000FCEEE66ACDED016A9DF80430E37370EE10
:10849000277AA374F4EEC77AF1EE10FA637527DC3D
:1084A000F5EEC07AF1EE10FA24D4FCEEE77ACDEDC9
:1084B000017A9DF80430A376637784F820305CE776
:1084C000F0EE476A77E7F0EE676A74E7B3EE040A06
:1084D0007FE7BBEE040A7CE7FF23ACE70023AAE7B3
:1084E000FF23BEE70023BCE7FF23CFE70023CDE750
:1084F000FF23E0E70023DEE748020020881F00207A
:10850000901F0020CF62030867660308C562030856
:10851000935A030800007F437FB5174E35784DBB53
:1085200008F04EFD154B1648ADF80E5012221A6099
:108530000124102302A902938DF80C400FF008FDCE
:10854000104819F0C1FD104819F0BEFD0F4B3470F2
:108550002246322100930E482B4626F081FF064624
:1085600026F0A6F864230246009321462B463046A7
:1085700026F0E8FF04B070BD751B0020801F0020AE
:1085800000040240C86E0308E46E030891810008ED
:10859000506E030810B51B4B1B4A1B6812689342B0
:1085A00005D91A480C21BDE8104008F0BFBD184A93
:1085B000184C11681360184A184852F82320C91A39
:1085C00018BF01219047237A73B126F071F86168D2
:1085D00040F2DB53401A984209D9002121726160B0
:1085E0000E4824222CF00AF90C480C21DBE74FF44A
:1085F0009673B0FBF3F103FB1101642994BFFF21D3
:108600000021EDE7D8010020801F0020C81E0020B7
:108610001C1F0020741F0020DC010020F81E002019
:108620002DE9F04F2DED028B814695B009B3A44A98
:10863000034600F124010024147054709470033335
:1086400003F8034C03F8024C03F8014C994202F181
:108650000302F1D19B4B00221A600DF0ADFB002309
:108660004FF47A72FCF736FE974BC3E90001974B43
:108670001C60DFF858B2DFF85CA2DBF800300AEBD0
:108680008302013351680A910AEB83011AF82380AF
:108690004D788E7845EA0803334300F0A881D779F6
:1086A0000DF08AFB4FF47A720023FCF713FECDE93C
:1086B0000001DFED876ACDF81CB007F00F0440F22F
:1086C0000F2E7F09804BD3E900232821CDE9022317
:1086D000C1FB8823CDE90423EB0003F03803E9084C
:1086E00043EA561340F20315DDE900BC6B4306F084
:1086F0001F02DDE904560EFB01F10EFB02F2664596
:1087000001F1170103F1210302F1170208BF5D45D2
:10871000C1F38711C3F38713C2F3871272D30BAD72
:10872000674E8DF825108DF826308DF827202846C5
:108730004FF0000C96F800E080F800E00CF1010C1E
:1087400096F801E080F801E0BCF10C0F96F802E029
:1087500080F802E006F1030600F10300EAD19DF87B
:108760002B0064F3030067F347108DF82B00C6B2AB
:10877000C00640F14181009B029A981A019B039A1E
:1087800063EB0201FCF730F982464FF47A7000FB8C
:1087900008F81920B8FBF0F08B46FCF7F1F8024618
:1087A0000B4650465946FCF77FFAFCF735FC16F0AD
:1087B0000F0206EE900AF7EE007A00F08D8037EE99
:1087C000E67A3F4D0DF1250104EB440400220BA88D
:1087D00011F8013B07EE903A635DF8EEE77A06EE9A
:1087E000103A67EEA67AB8EEC66A0132E7EE067A6C
:1087F000032AFCEEE77A17EE903A235404F10104C1
:10880000E6D18EE09DF82B5064F3030567F347151E
:10881000EEB215F00F054AD1294C217001350C2D0F
:108820006370A27004F10304F7D116F0E00F19D0C1
:1088300007EE908AF8EEE77AB3EE097A67EEA67A49
:108840004FF47A7387EE876A5F431E4B07EE907A88
:10885000F8EEE77A86EE277AD3ED007A77EE277A7C
:10886000C3ED007ADDE90412174BC3E90012079B40
:10887000079A19684B1C13600AEB830302315A688C
:108880000A92DF791AF821800AEB810207F00F04BF
:10889000557896787F09B8F1000F7FF413AF002D5B
:1088A0007FF410AF002E00F0A280A8460AE7044D26
:1088B00004EB44042846254401556B70AA70B4E7C4
:1088C000002000202420002028200020FC1F002061
:1088D00000007A44481F002037EEE67A524B0DF133
:1088E000250403EB020CA81800211CF8013B06EE3E
:1088F000103A14F8013B07EE903AF8EEE77AB8EE3A
:10890000C66A67EEA67A0131E7EE067A0329FCEE25
:10891000E77A17EE903A00F8013BE6D10332242AB9
:10892000DCD1424B16F0E00F93ED008A15D0009B8E
:10893000029A981A019B039A63EB0201FCF784FCEC
:108940004FF47A735F4307EE907A07EE100AF8EE61
:10895000E77A87EE277A38EE078AF2EE087A28EE71
:10896000278A0C20FDEEC87AB7EE007A17EE905AEF
:10897000F8EEE77A002638EE678A95FBF0F337EEDB
:10898000487A00FB13553446013D01342A1992FB05
:10899000F0F300FB132303EB4303B4FBF0F200FB03
:1089A00012424B440BA902EB42070F4403F1FF3C78
:1089B000A2EB82010233CA19925D06EE902A17F8E3
:1089C000012B07EE902AF8EEE77AF8EEE66A67EEFA
:1089D000277AE6EE887AFCEEE77A17EE902A0CF812
:1089E000012F6345E7D10C2C06F10306CDD115B05C
:1089F000BDEC028BBDE8F08F16F00F0008D10130FE
:108A00000C2829706B70AA7005F10305F7D188E76F
:108A100004EB440414A8044404F8241C04F8233C84
:108A200004F8222C7DE700BF002000202420002035
:108A30001FF0E6BD73B5134E34780CBB1FF0B6FDC6
:108A40000323114900934FF4967223460F48019473
:108A500025F0B0FC0E4B01930E4B009301222346F0
:108A6000C8210D4826F02AFD054625F021FE2346A3
:108A7000024600940121284626F064FD012333704C
:108A800002B070BD761B0020186F0308A58602088F
:108A900030200020318A00081B6F030870B5059C48
:108AA0009DF81060C31A013C0020814200DC70BDBB
:108AB0003BB15D1EAE4206DDE55C1554013301306D
:108AC000F3E73546F9E70025F7E7000019B9044B4D
:108AD00028221A8070470129FCD1014B0822F8E7AF
:108AE000EC02002010B5044C22781AB9034904485E
:108AF00021F0FEFB207810BD771B0020486F030893
:108B000051D1010810B5044C22781AB90349044820
:108B100021F0EEFB207810BD702100206F6F03085C
:108B200051D10108084625F029BF00002DE9F8437E
:108B30001E46164BDDF820901888154D14460F463A
:108B4000FCF7EAFF134B93F8008000214046FCF746
:108B500091FE224639462846FBF732FB4A4631460B
:108B60002819FBF72DFB0C4A294604EB0900FCF7FA
:108B700061FF01214046FCF77DFEFCF7DDFF074A5F
:108B8000936801339360BDE8F88300BFEC020020D6
:108B90005C220020594E030898210020F00200209A
:108BA0002DE9F8431D46194B089E1888184F1446A6
:108BB0008846FCF7B1FF174B93F800900021484618
:108BC000FCF758FE41462246DFF850803846FBF756
:108BD000F7FA3246002138192BF010FE424639468A
:108BE000A019FCF727FF324608EB04012846FBF7E3
:108BF000E7FA01214846FCF73DFEFCF79DFF064AD7
:108C0000936801339360BDE8F88300BFEC02002055
:108C10005C220020594E0308D00200209821002039
:108C20002DE9F8431E46164BDDF820901888154DA7
:108C300014460F46FCF770FF134B93F80080002199
:108C40004046FCF717FE224639462846FBF7B8FA9D
:108C50004A4631462819FBF7B3FA0C4A294604EB79
:108C60000900FCF7E7FE01214046FCF703FEFCF794
:108C700063FF074A936801339360BDE8F88300BF40
:108C8000EC0200205C2200205C4E030898210020AA
:108C9000F00200202DE9F8431D46194B089E188864
:108CA000184F14468846FCF737FF174B93F800908F
:108CB00000214846FCF7DEFD41462246DFF85080A1
:108CC0003846FBF77DFA3246002138192BF096FD25
:108CD00042463946A019FCF7ADFE324608EB0401C6
:108CE0002846FBF76DFA01214846FCF7C3FDFCF767
:108CF00023FF064A936801339360BDE8F88300BF01
:108D0000EC0200205C2200205C4E0308D002002010
:108D100098210020084A904208B507D1074B1B68EC
:108D200002215B689847064B186008BD054A9042CF
:108D3000FBD1054BF3E700BFC020002064020020F8
:108D40002023002018210020A4020020084A90427D
:108D500008B507D1074B1B6801215B689847064B94
:108D6000186008BD054A9042FBD1054BF3E700BFF0
:108D7000C0200020640200202023002018210020B1
:108D8000A4020020084A904208B507D1074B1B688F
:108D900003215B689847064B186008BD054A90425E
:108DA000FBD1054BF3E700BFC02000206402002088
:108DB0002023002018210020A402002010B50A4B17
:108DC0000A4C58710C235843094B1B58236009481F
:108DD0001B689847236807485B6800219847064B43
:108DE0001860012010BD00BF4C020020640200206A
:108DF00068020020C02000202023002010B50A4B6C
:108E00000A4CD8710C235843094B1B58236009485E
:108E10001B689847236807485B6800219847064B02
:108E20001860012010BD00BF4C020020A4020020E9
:108E300068020020182100202023002013B50446DA
:108E400026F0DAFF48B1264B2649274800221A703F
:108E500002B0BDE8104021F04BBA204626F0D6FD06
:108E600000220023CDE9002302AB13E90C002046C9
:108E700027F0F2FE1D49204627F0E8FE1C49204657
:108E800027F0E6FE1B49204627F0E4FE204627F0A7
:108E900054F8204627F094FA1749204627F074FA30
:108EA000164B9C4216D10221204627F0DCF82046C2
:108EB000092127F0E0F82046012127F05BF8204641
:108EC00042F2107126F0C8FE204602B0BDE8104004
:108ED00027F03EBE0A4B9C42E9D10521E4E700BFE2
:108EE000771B00209B6F030851D10108158D0008E6
:108EF0004D8D0008858D000866BE0308C020002047
:108F00001821002030B585B0FCF7F8FC0B210220B9
:108F10000FF016FB01244FF4006302A80293ADF892
:108F20000C308DF80E400EF0BBFF1E4B214618781A
:108F3000FCF76EFC1C4B1D7821462846FCF768FCAC
:108F40001A4B00211878FCF763FC00212846FCF737
:108F500091FC0A2025F012FD21462846FCF78AFCE8
:108F60000A2025F00BFD1249124826F0E5FC1148B5
:108F7000FFF764FF104819F0A7F8204624F095FC8D
:108F80000E4B0F4918600F4B0193032300934FF4CE
:108F9000E17200230C4825F00DFA0C4B1C7005B053
:108FA00030BD00BF594E03085E4E03085D4E0308F6
:108FB000A8020020C020002048700308B420002030
:108FC000BE6F0308242500200D920008771B0020A7
:108FD00030B585B0FCF792FC052101200FF0B0FA06
:108FE00020230124029302A84FF40063ADF80C3053
:108FF0008DF80E400EF054FF1D4B21461878FCF7FB
:1090000007FC1C4B1D7821462846FCF701FC1A4B37
:1090100000211878FCF7FCFB00212846FCF72AFC0D
:109020000A2025F0ABFC21462846FCF723FC0A2049
:1090300025F0A4FC1149124826F07EFC1048FFF7E9
:10904000FDFE104819F040F8204624F02EFC0E4B8F
:109050000E4918600E4B0193032300934FF4E17205
:1090600000230C4825F0A6F90B4B1C7005B030BD51
:109070005C4E03085F4E03085A4E0308BC020020F2
:109080001821002058700308B8200020BE6F030884
:10909000282500209D9000087021002080B5002226
:1090A00020210A2024F0EEFA4D4B4E4C186000238C
:1090B0004D4EE3711CF076FE4C4F354630684FF054
:1090C000FF3124F079FD94F80690B9F1000F5DD1DD
:1090D00025F0EEFA637C804663B194F810A0BAF1F3
:1090E000000F31D000F57A7060610220FFF786FE34
:1090F00084F810900023DFF80C9128681A4619466E
:1091000024F0F8FAD9F800200121002026F066F8B2
:109110008046002850D0DFF8E890DFF8EC8028681F
:109120004FF0FF3124F048FD484627F039FD002379
:1091300028681A46194624F0DDFA98F80000FCF772
:10914000A7FB0028EBD1B9E763699842D2D9284B35
:109150001B689B689847E37950B10C2000FB0373B0
:1091600024499A6884F811A0234821F0C1F8C1E786
:109170000133D8B2052828BF012008F57A7363614E
:10918000431E032BB6D8FFF739FEB3E740F20113B5
:109190002382E3794B45ADD009F1FF33032BA9D8E6
:1091A0004846FFF72BFE0028A4D0E37913490C2290
:1091B00002FB03739A68D7E728684FF0FF3124F069
:1091C000FBFC0B4B0E481B6841465B6898474346C7
:1091D000C9F8000042462868414624F08BFA6DE742
:1091E000942100204C020020B820002068020020BA
:1091F000A4020020C26F030851D10108E46F0308E4
:1092000018210020202300205A4E030880B5002298
:1092100020210A2024F036FA4D4B4E4C18600023D2
:109220004D4E63711CF0BEFD4C4F354630684FF01B
:10923000FF3124F0C1FC94F80490B9F1000F5DD126
:1092400025F036FA637A804663B194F808A0BAF143
:10925000000F31D000F57A70E0600220FFF7AEFD1C
:1092600084F808900023DFF80C9128681A46194604
:1092700024F040FAD9F800200121002025F0AEFFAB
:109280008046002850D0DFF8E890DFF8EC802868AE
:109290004FF0FF3124F090FC484627F081FC00237A
:1092A00028681A46194624F025FA98F80000FCF7B9
:1092B000EFFA0028EBD1B9E7E3689842D2D9284BFE
:1092C0001B689B689847637950B10C2000FB0373BF
:1092D00024499A6884F809A0234821F009F8C1E7D5
:1092E0000133D8B2052828BF012008F57A73E3605E
:1092F000431E032BB6D8FFF761FDB3E740F201131D
:10930000238163794B45ADD009F1FF33032BA9D8F5
:109310004846FFF753FD0028A4D0637913490C2277
:1093200002FB03739A68D7E728684FF0FF3124F0F7
:1093300043FC0B4B0E481B6841465B68984743460D
:10934000C9F8000042462868414624F0D3F96DE789
:10935000942100204C020020B4200020680200204C
:1093600064020020C26F030851D10108E46F0308B2
:10937000C0200020202300205D4E0308F8B50D4BCF
:109380001C7805460E4694B10B4F4FF0FF313868FC
:1093900024F012FC094B1B683146DB6828469847CD
:1093A000002304461A463868194624F0A3F92046DB
:1093B000F8BD00BF771B0020B4200020640200200D
:1093C000F8B50D4B1C7805460E4694B10B4F4FF087
:1093D000FF31386824F0F0FB094B1B683146DB682D
:1093E00028469847002304461A463868194624F050
:1093F00081F92046F8BD00BF70210020B820002070
:10940000A4020020F8B50D4B1C7805460E4694B119
:109410000B4F4FF0FF31386824F0CEFB094B1B682F
:1094200031461B6928469847002304461A46386887
:10943000194624F05FF92046F8BD00BF771B0020D5
:10944000B420002064020020F8B50D4B1C780546BE
:109450000E4694B10B4F4FF0FF31386824F0ACFB4F
:10946000094B1B6831461B69284698470023044670
:109470001A463868194624F03DF92046F8BD00BF69
:1094800070210020B8200020A4020020F8B50D4B68
:109490001C7805460E4694B10B4F4FF0FF313868EB
:1094A00024F08AFB094B1B6831465B6928469847C4
:1094B000002304461A463868194624F01BF9204652
:1094C000F8BD00BF771B0020B420002064020020FC
:1094D000F8B50D4B1C7805460E4694B10B4F4FF076
:1094E000FF31386824F068FB094B1B6831465B6923
:1094F00028469847002304461A463868194624F03F
:10950000F9F82046F8BD00BF70210020B8200020E7
:10951000A4020020F0B5B0F5805F87B004460E4687
:10952000154610D2204F4FF480713846FFF78CFF5C
:10953000CDE9000700232A4631462046FFF7AEFA60
:10954000012007B0F0BDA0F58053B3F5805F0AD2CB
:10955000154F4FF480713846FFF7BAFF4FF4805330
:10956000CDE90007E7E710F0FF01A0F5005716D19D
:109570000D2E16D1102202A82BF040F902A9C7F334
:109580000720FFF71DFF039B2B60049B6B60059B6F
:10959000AB60029B003B18BF01232B73D0E7002078
:1095A000CFE70846CDE700BF2424002038B50546A4
:1095B0000948007878B1094CA01C62702570FAF750
:1095C000FFFD074800231A460068214624F092F860
:1095D000431E5842584138BD771B0020712100209E
:1095E0009421002008B5054B01460022186824F09C
:1095F0003BFA431E5842584108BD00BF9421002049
:1096000007B50A4B00211868019101AA25F02EFE2A
:10961000019B3BB1064B4FF080521A60BFF34F8F56
:10962000BFF36F8F03B05DF804FB00BF242500205B
:1096300004ED00E07047000007B50A4B00211868F0
:10964000019101AA25F012FE019B3BB1064B4FF0A0
:1096500080521A60BFF34F8FBFF36F8F03B05DF876
:1096600004FB00BF2825002004ED00E07047000047
:10967000014B1880704700BF4C020020014B187846
:10968000704700BFC2250020014B1878704700BF0B
:10969000C3250020014B1878704700BFC425002067
:1096A00013B50446019125F003F8019A03460348D7
:1096B000214602B0BDE8104022F0B4BFE09900108E
:1096C00013B50446019124F0F3FF019A03460348C1
:1096D000214602B0BDE8104022F0A4BFE09900107E
:1096E000002303700123437002238370032070471B
:1096F0000A460146014822F080BF00BFE0990010F1
:109700000A460146014822F078BF00BFE0990010E8
:1097100000230370012343700223837003207047EA
:1097200037B504460D4624F0C3FF214602466B467A
:10973000054822F04FFF044618B12946684622F03A
:1097400099FF204603B030BDE099001037B50446BC
:109750000D4624F0ADFF214602466B46054822F037
:1097600039FF044618B12946684622F083FF204697
:1097700003B030BDE099001002288CBF002001200A
:10978000704710B5044626F023FD204626F018FE4B
:109790002046BDE8104026F089BB00000000000014
:1097A00038B5054624F084FF9FED0D0B0E4A0146A7
:1097B00002230E4822F092FC0D4B00241C700D4B2E
:1097C00020461C70FFF754FF42F21071284626F025
:1097D00043FA284627F0BCF9074B1C7038BD00BF80
:1097E0000000000030C12D4245980008E0990010AB
:1097F000C1250020C0250020C22500200000000057
:1098000010B5044624F054FF0B4A01239FED080BCA
:1098100001460A4822F062FC42F21071204626F00E
:109820001BFA204627F094F9054B00221A7010BD50
:109830000000000030C12D4291980008E09900100E
:10984000C32500202DE9F0418CB0002305460746D2
:109850000E4690468DF800300FCD01AC0FC40FCDF1
:109860000FC495E8070084E80700684617F04CF835
:10987000711C01F00701414501BF044B03EB81015D
:109880007B6A0B600CB0BDE8F08100BF5C25002056
:1098900030B58DB0002304468DF800300FCC01ADFB
:1098A0000FC50FCC0FC594E8070085E80700684690
:1098B00017F02AF80DB030BD2DE9F04F984943F26A
:1098C0008842B3B08B5801338B50074626F004FC16
:1098D0000DF1330102460646384626F01BFC9DF882
:1098E0004830222B40F005818E4B109C93F800905D
:1098F000E4B2B9F1000F53D0DFF8448298F8003099
:10990000A34240F0F380884D384626F030FA2B7899
:1099100098F8012023F07F0343F041032B706B780C
:1099200003F0030363F023036B7008F10201F023DB
:1099300005F116006B75FAF743FC7C4B00221B689F
:10994000AA73EA732A746A74AA7498F800206FF0F4
:1099500043014FF0FF3C297129756FF0300003EB94
:10996000C20185F80DC0E870E87453F832204B68E6
:10997000C5F809303846C5F8052026F03AFC3846C7
:1099800026F01EFD98F8012029461632384626F0AA
:1099900081FB3846012126F0E5FA384626F09FFA89
:1099A0000022002308A93846CDE9082326F0D8FC78
:1099B000072C00F2978024F07BFE0246DDE90801C7
:1099C000A31CCDE9040132A901EB83030AAF53F8CC
:1099D0007FBC53480B462344214613F87F3C03F0D9
:1099E0007F0306933B4622F09EFB384622F030FE72
:1099F0004FF0000A804655463846E9B2884535D0D2
:109A000032AAAB1C02EB830353F87F2C62B132AB5A
:109A10002B44079113F87F3C03F07F03009300234E
:109A200022F074FE07990AA832AA05F1140302EB8A
:109A3000430333F87F2C93B2C3B192B2002322F0D8
:109A4000BDFE3B4B1B785A1C02F0070242450AA898
:109A50000CD132AA143302EB430313F87F2C13F812
:109A60007E3C42EA0323334A22F818300135082DA0
:109A7000C3D1DDE904233946CDE9002328482E4D22
:109A80005A46002322F060FB069B02933846DDE92C
:109A90000423CDE900BA22F00AFE384622F018FE6F
:109AA00051EC100BFBF7B8FA05EB8405204B28604E
:109AB0004E3E002E1C7012DD9DF88130F02B0ED131
:109AC0001A4B10981B681199A3F108023833F2E978
:109AD0000245A94208BFA0420ED09342F7D1174BCE
:109AE00001221A70484633B0BDE8F08F4FF00009EC
:109AF00056E74FF00009F5E79DF88230012BEED1D3
:109B0000DDF88B3001EE103ADDF8873000EE903A48
